:10000000C3EF02F00000000000EF00F0000000006D
:0A0010000000000000000000F3D71C
:06001C00000000001200CC
:0A002200210E0D6E0D2EFED7120008
:10002C000F0E0C6E470E0D6E0D2EFED70C2EFCD740
:06003C00000000001200AC
:100042000B840BAE2CEF00F0010E036E026A016A04
:0A005200006A0A360232FF0E1200A7
:0E005C00026A016A006A086A036A000E120056
:10006A0033BE02D08A9601D08A8633BC02D08A94E3
:10007A0001D08A8433BA02D08A9201D08A8233B8F4
:10008A0002D08A9001D08A801CB002D08A8801D01E
:10009A008A988A8ABEDF8A9A33B602D08A9601D0B3
:1000AA008A8633B402D08A9401D08A8433B202D0C9
:1000BA008A9201D08A8233B002D08A9001D08A8093
:1000CA001CB002D08A8801D08A988A8AA2DF8A9ACA
:0C00DA001CA002D0A6DF01D09FDF1200A6
:0800E6000AAE029E000E12009A
:1000EE000B800BAE83EF00F0026A0AAEFF0E026EBB
:0C00FE00016E006E0A360232FF0E120086
:0C010A000E0E0D6E0D2EFED70000120030
:100116000C6A0E6A0250D8A4A4EF00F001C002F0E7
:1001260000C001F0006A0E860250D8A4A4EF00F0C9
:1001360001C002F0016A0E960E880250D8B4B6EFDE
:1001460000F00E50035ED8A4D8A0BBEF00F0D89004
:1001560002BEC0EF00F0003601360236032EABEFCA
:1001660000F0BBEF00F0010E0C6E75DFC3EF00F080
:10017600020E0C6E63DFC3EF00F0040E0C6EB0DFF0
:02018600120065
:0C0188001C9032C033F06DDF1C801200B0
:100194000B820BAED4EF00F00368026801680068BC
:0801A4000A360232FF0E1200C0
:1001AC000900F5CFE6FF0006FBE10106F9E11200BC
:1001BC000FD0800E2D6E19D0C00E2D6E16D0940E51
:1001CC002D6E13D0D40E2D6E10D0800E2D6E0DD042
:1001DC002D50010AEEE02D50020AEEE02D50030ADC
:1001EC00EEE02D50040AEEE0F0D72E04006E2D50F8
:1001FC00002600C02DF000C033F031DF1C90316AB6
:10020C0031502F24E96E000E3020EA6EEE520BE0D6
:10021C0031502F24E96E000E3020EA6EEECF32F012
:0A022C00ADDF312AEDD71C8012006F
:10023600939A939893909392939493968A9A8A9882
:100246008A968A948A928A90EEDEEDDEECDE8A82C7
:100256008A808A8AE0DE8A9AE6DE8A8ADCDE8A9AE2
:10026600E2DE8A8AD8DE8A9ADEDE8A908A8AD3DE3F
:100276008A9AD9DE8A8ACFDE8A9A8A928A868A8A78
:10028600CADE8A9AD0DE8A968A808A8AC4DE8A9AEA
:100296008A908A8AC0DE8A9AC6DE8A8ABCDE8A9AF2
:1002A6008A808A8AB8DE8A9ABEDE8A908A8AB3DE15
:1002B6008A9A8A868A848A828A808A8AACDE8A9A1E
:0602C600B2DE1C801200F4
:1002CC00086A096A000E07620364EBEF01F0025042
:1002DC0006180A6E075003267E0ED8A07CEF01F09C
:1002EC00035ED8B0EFEF01F080EF01F0035ED8A011
:1002FC00F3EF01F0028E068E02C00EF001C00BF07F
:10030C0000C00DF000500402F4CF0CF001500502B7
:10031C00F4CF00F0F3CF08F00402F3500C26F450A5
:10032C000822000E00220D500502F3500C26F4504A
:10033C000822000E002202500402F3500826F4504A
:10034C00002202500502016A000E0122F350002621
:10035C00F45001220D500602F3500826F4500022EE
:10036C00026A000E012202220B500602F3500026F4
:10037C00F4500122000E02220E500602F350012608
:10038C00F450022202BED3EF01F0083600360136DB
:10039C0002360306D8B4F3EF01F0E6EF01F0D88093
:1003AC00800E08640030000E002201220222D8A028
:1003BC00E6EF01F0023201320032034AEFEF01F0B6
:1003CC000AAE029E000EF5EF01F0010E41DEF5EFD4
:1003DC0001F0020ED9DEF5EF01F0040E2CDE120056
:1003EC000B6A0C6A0A6A0350D8B440EF02F0028E12
:1003FC008E0E035E03BE08EF02F0D8B408EF02F0D5
:10040C0044EF02F0036C080E035CD8A01FEF02F05F
:10041C00036E013602C001F0026A080E035CD8A01C
:10042C001FEF02F00136016A0350D8A4D89029EFCF
:10043C0002F00350D8B429EF02F0D8900232013206
:10044C00032E23EF02F00BBC01A036EF02F0D8A074
:10045C0036EF02F0012AD8B4022A02BE53EF02F0A2
:10046C000AAE58EF02F0021E011E012AD8B4022A6D
:10047C0058EF02F0026A016A58EF02F00B800BAEE3
:10048C005CEF02F0026A0AAE5CEF02F0FF0E026E45
:10049C00016E0A3602325CEF02F0010E0C6E21DEA8
:1004AC005EEF02F0000E0C6E5EEF02F0FF0E0C6EB3
:0A04BC000150006E0250016E1200A4
:1004C600086A096A100E0C6E0134083609360450A3
:1004D600085E0550D8A0053C095ED8B007D0045088
:1004E60008260550D8B0053C0926D89000360136B6
:0604F6000C2EEAD71200F3
:1004FC00FF0E1D6EFF0E1E6EFF0E1F6EFF0E206E8A
:10050C00C26A1B1C006E0050C116070EC012C08EB2
:04051C00C280120087
:10052000C26A1B1C006E0050C116070EC012C08E9E
:100530002DC000F000360090003600900050C2122E
:10054000C280E3DDC282C2A201D0FDD7C4CF01F0D8
:0E055000006AC3500012000E0112C290120089
:10055E000050086E0150006E016A026A036A0B6A4F
:10056E000C6A960E036E0A6A00C001F008C000F015
:08057E00086A026AC9DD1200DF
:100586004DEC03F0928AC16A53DE010E336E6ADDCA
:100596000C0E336E67DD010E2D6E010E2E6E150EDE
:1005A6002F6E000E306E07DEA6DF040E2D6EB5DF51
:1005B600D3DF9A0E046E660E056E1A0E066E7F0E59
:1005C600076E81DE10DF00C02BF001C02CF0E80EB4
:1005D600046E030E056E2BC000F02CC001F070DF18
:1005E600300E002600C021F0640E046E000E056E6B
:1005F6002BC000F02CC001F063DF0A0E046E000E63
:10060600056E5EDF08C000F009C001F0300E002460
:10061600226E2E0E236E0A0E046E000E056E2BC081
:1006260000F02CC001F04CDF0A0E046E000E056EC1
:1006360047DF08C000F009C001F0300E0024246E28
:100646000A0E046E000E056E2BC000F02CC001F0E1
:1006560037DF08C000F009C001F0300E0024256E17
:10066600266A010E2D6E060E2E6E210E2F6E000EC0
:10067600306EA1DD340E0C6EF10E0D6E0D2EFED712
:0C0686000C2EFCD70000000090D7FFD71E
:10069A0010EE15F0070E006E010E016E920EF66E48
:0E06AA00060EF76E000EF86ED6EC00F0120091
:06069200414443303A0030
:010698003031
:020000040030CA
:0E000000000C1F1EFF8381FF0FC00FE00F409A
:00000001FF
