:1000000058EF01F00000000000EF00F000000000D9
:0A0010000000000000000000F3D71C
:0A001C00210E0D6E0D2EFED712000E
:100026000F0E0C6E470E0D6E0D2EFED70C2EFCD746
:06003600000000001200B2
:06003C00000000001200AC
:100042002EBE02D08A9601D08A862EBC02D08A9415
:1000520001D08A842EBA02D08A9201D08A822EB826
:1000620002D08A9001D08A801BB002D08A8801D047
:100072008A988A8AE2DF8A9A2EB602D08A9601D0BC
:100082008A862EB402D08A9401D08A842EB202D0FB
:100092008A9201D08A822EB002D08A9001D08A80C0
:1000A2001BB002D08A8801D08A988A8AC6DF8A9ACF
:0C00B2001BA002D0B7DF01D0B0DF1200AD
:1000BE00086A096A100E0C6E0134083609360450AF
:1000CE00085E0550D8A0053C095ED8B007D0045094
:1000DE0008260550D8B0053C0926D89000360136C2
:0600EE000C2EEAD71200FF
:0C00F4001B902DC02EF0A3DF1B8012001B
:10010000939A939893909392939493968A9A8A98B9
:100110008A968A948A928A9086DF85DF84DF8A8233
:100120008A808A8A8BDF8A9A7EDF8A8A87DF8A9A28
:100130007ADF8A8A83DF8A9A76DF8A908A8A7EDFEC
:100140008A9A71DF8A8A7ADF8A9A8A928A868A8A6A
:1001500075DF8A9A68DF8A968A808A8A6FDF8A9A30
:100160008A908A8A6BDF8A9A5EDF8A8A67DF8A9A38
:100170008A808A8A63DF8A9A56DF8A908A8A5EDF5B
:100180008A9A8A868A848A828A808A8A57DF8A9AA9
:060190004ADF1B80120093
:100196000900F5CFE6FF0006FBE10106F9E11200D2
:1001A6002A6A050E2A5C0AE22A502824E16E000E0D
:1001B6002920E26E200EE66E2A2AF3D72A5028243A
:1001C600E16E000E2920E26EE66A2A062A502824ED
:1001D6002B6E000E29202C6E0A0E046E000E056E84
:1001E60026C000F027C001F067DF08C000F009C094
:1001F60001F0300E00262BC0E1FF2CC0E2FF00C04C
:10020600E6FF0A0E046E000E056E26C000F027C03B
:1002160001F052DF00C026F001C027F0000E0118E1
:1002260002E1000E001801E102D02A06CFD7120023
:100236000FD0800E266E19D0C00E266E16D0940EE4
:10024600266E13D0D40E266E10D0800E266E0DD0DC
:100256002650010AEEE02650020AEEE02650030A76
:10026600EEE02650040AEEE0F0D72704006E265092
:10027600002600C026F000C02EF0E0DE1B902A6AA1
:100286002A502824E96E000E2920EA6EEE520BE071
:100296002A502824E96E000E2920EA6EEECF2DF0B2
:0A02A60026DF2A2AEDD71B80120084
:1002B000410E156E440E166E430E176E3A0E186EF2
:1002C000200E196E1A6A92800D0EC26EC16AAA0EB5
:1002D000C06E16DF010E2E6EB4DE0C0E2E6EB1DE79
:1002E000010E266E010E276E150E286E000E296E69
:1002F000A2DFC282C2A201D0FDD7C4CF27F0266AF6
:10030000C3502612000E27121C0E286E000E296EF6
:100310004ADF010E266E050E276E1C0E286E000E9B
:10032000296E89DF340E0C6EF10E0D6E0D2EFED788
:0C0330000C2EFCD700000000DCD7FFD72B
:020000040030CA
:0E000000000C1F1EFF8381FF0FC00FE00F409A
:00000001FF
